:020000040800F2
:10000000500C0020450100084D1000084510000864
:1000100049100008430800085B18000800000000B1
:10002000000000000000000000000000691200084D
:100030006D0D000800000000F9100008E51300082D
:100040005F0100085F0100085F0100085F01000810
:100050005F0100085F0100085F0100085F01000800
:100060005F0100085F0100085F0100085F010008F0
:100070005F0100085F0100085F0100085F010008E0
:100080005F0100085F0100085F0100085F010008D0
:100090005F0100085F0100085F0100085F010008C0
:1000A0005F0100085F0100085F0100085F010008B0
:1000B0005F0100085F0100085F0100085F010008A0
:1000C0005F0100085F0100085F0100085F01000890
:1000D0005F010008291600085F0100085F010008A1
:1000E0005F0100085F0100085F0100085F01000870
:1000F0005F0100085F0100085F0100085F01000860
:100100005F0100085F0100085F0100085F0100084F
:100110005F0100085F010008491400085F01000842
:100120005F0100085F0100085F0100085F0100082F
:10013000DFF80CD000F0C2F900480047291D000884
:10014000500C00200648804706480047FEE7FEE7BF
:10015000FEE7FEE7FEE7FEE7FEE7FEE7FEE7FEE777
:10016000E91300083101000830B480EA010202F00E
:10017000004530F0004221F0004013D090B1C30D93
:10018000D40DC2F31601C0F31600E41A41F40001C5
:1001900040F400027D34914201D3641C00E0490028
:1001A000002C02DA30BC002070474FF4000000231E
:1001B000914201D3891A034340084FEA4101F7D124
:1001C00051B1914202D14FF0004105E002D24FF00F
:1001D000010101E06FF0010103EBC450284430BC81
:1001E00000F0D7B82DE9FE4F81EA030404F0004483
:1001F00021F0004100944FF0000B23F0004350EA3F
:1002000001045ED052EA03045BD0C3F30A54C1F385
:100210000A552C44A4F2F3340194A0FB0254C1F318
:10022000130141F48011C3F3130343F4801301FB62
:10023000024400FB034E840A970A44EA815447EAC9
:100240008357A4FB076802958D0A05FB07854FEAD3
:10025000932C04FB0C542705029D4FEA065847EAED
:100260001637B5EB08056EEB070C870E920E47EAC2
:10027000811742EA8312A7FB0201B6EB0B0164EB84
:1002800000042B0D43EA0C335E1844EB1C50DA4695
:100290005146E7FB0201C5F313044FEA0B3343EA6F
:1002A00014534FEA0432019C43EA0603A4F10C0400
:1002B0000294009CCDE900B400F0B1F803B0BDE8B1
:1002C000F08F00200146F9E796230022114600F046
:1002D00069B800F0004230F000400AD0C10D01F5CD
:1002E0006071C0F3160042EA0151C2084007114391
:1002F000704700200146704701F0004330B421F000
:10030000004150EA010206D00A0DA2F56072C1F365
:100310001301002A02DC30BC00207047440F44EA7D
:10032000C104C100E01830BC00EBC25000F031B88D
:100330002DE9F05F0546002092469B46884606461A
:10034000814640241BE0284641464746224600F0AD
:10035000D6F853465A46C01A914110D31146184652
:10036000224600F0BDF82D1A67EB01084F462246E1
:100370000120002100F0B4F817EB00094E41201EC7
:10038000A4F10104DFDC484631462A464346BDE875
:10039000F09F0029A8BF7047401C490008BF20F00B
:1003A0000100704710B4B0FA80FC00FA0CF050EA7B
:1003B000010404BF10BC704749B1CCF1200421FAFC
:1003C00004F411FA0CF118BF012121430843A3EBF7
:1003D0000C01CB1D4FEA00614FEA102042BF002004
:1003E00010BC704700EBC35010440029A4BF10BCE0
:1003F0007047401C490008BF20F0010010BC704746
:1004000010B5141E73F1000408DA401C41F100011C
:1004100092185B411A4301D120F0010010BD2DE973
:10042000F04D92469B4611B1B1FA81F202E0B0FA6A
:1004300080F22032904600F053F804460F4640EA1E
:100440000A0041EA0B0153465A46084313D01146AD
:1004500053EA010019D0C8F14002504600F04FF8AD
:1004600005460E4650465946424600F039F80843C4
:1004700005D0012004E020463946BDE8F08D00207B
:10048000054346EAE0762C4337430A986305E40ABD
:10049000A0EB08000022FD0A44EA47540A3002D5C6
:1004A00000200146E9E7010510196941DDE9084529
:1004B00000196941BDE8F04DA2E70000064C074D68
:1004C00006E0E06840F0010394E807009847103424
:1004D000AC42F6D3FFF730FE041E0008241E0008CD
:1004E000202A04DB203A00FA02F1002070479140F4
:1004F000C2F1200320FA03F3194390407047202AE9
:1005000004DB203A21FA02F00021704721FA02F3BD
:10051000D040C2F12002914008431946704721B1F2
:10052000826842F00102826003E0826822F00102E8
:100530008260704721B1826842F48072826003E079
:10054000826822F4807282607047014600208A68C7
:1005500002F004020AB1012000E0002070470146C9
:1005600000208A6802F008020AB1012000E00020A1
:100570007047000030B502460020002350680F4C41
:1005800020400D790C6844EA0524204350609068AF
:100590000B4C2040D1E902542C434D7944EA4504E8
:1005A00020439060D06A20F470000C7C641EE4B29A
:1005B000234340EA0350D06230BD0000FFFEF0FF4D
:1005C000FDF7F1FFF0B504460D4600200021092D8E
:1005D00011DDE068A5F10A0606EB4607072606FAD4
:1005E00007F18843A5F10A0606EB460603FA06F171
:1005F0000843E0600CE0206905EB4507072606FA92
:1006000007F1884305EB450603FA06F1084320612C
:10061000072A0FDA606B561E06EB86071F2606FABE
:1006200007F18843561E06EB860605FA06F10843D5
:10063000606322E00D2A0FDA206BD61F06EB8607D7
:100640001F2606FA07F18843D61F06EB860605FA31
:1006500006F10843206310E0E06AA2F10D0606EB04
:1006600086071F2606FA07F18843A2F10D0606EB5E
:10067000860605FA06F10843E062F0BD816841F0A4
:1006800008018160704721B1826842F4A002826053
:1006900003E0826822F4A00282607047816841F022
:1006A000040181607047000008B50121102000F0AE
:1006B00061FD0220ADF8000000208DF803006946BE
:1006C000014800F0EBFB08BD0010014010B5FFF73A
:1006D000EBFF00F001F810BD00B591B00121084614
:1006E00000F018FD0121480200F044FD334800F0FD
:1006F00079FA33480690334807900020089001208B
:10070000099000200A900B904FF480700C908000AC
:100710000D9020200E9000020F900020109006A94E
:10072000264800F005FB0121244800F04EFA002085
:1007300001908DF8080001208DF809004FF4602029
:1007400003900020049001208DF8140001A91C489A
:100750004C38FFF70FFF4FF4404000F0CFFC05236B
:1007600001220B2116484C38FFF72CFF01211448B9
:100770004C38FFF7DFFE012111484C38FFF7CFFE60
:100780000F484C38FFF77AFF00BF0D484C38FFF791
:10079000E6FE0028F9D10A484C38FFF77FFF00BF7A
:1007A00007484C38FFF7D1FE0028F9D10121044851
:1007B0004C38FFF768FF11B000BD00000800024090
:1007C0004C2401402600002010B500F025F800F070
:1007D00001F810BD0EB50121102000F0ABFC40F275
:1007E000E730ADF8040041F6CF30ADF800006946BF
:1007F000084800F0C7FE0121064800F041FE012232
:100800001146044800F05FFE0121024800F03EFE60
:100810000EBD00000010004008B54FF4E06000F08D
:1008200061FC36208DF8000000208DF801000320C7
:100830008DF8020001208DF80300684600F01AFCD4
:1008400008BD00BFFEE710B500F020F800F0D2F8B8
:1008500010BD000010B504460B48844209D10121A7
:10086000480600F077FC00214FF0007000F072FCA9
:1008700008E00121880600F06DFC00214FF0806047
:1008800000F068FC10BD00000064004008B50121C4
:10089000092000F06FFC01214FF4EA1000F08AFB00
:1008A0004FF40070ADF8000018208DF8030003200D
:1008B0008DF802006946094800F0F0FA4FF48070A4
:1008C000ADF8000048208DF8030003208DF80200E9
:1008D0006946024800F0E2FA08BD0000000C014041
:1008E00030B5024600200023146824F0020414608E
:1008F000146844F00104146000E05B1C546804F0C8
:1009000001041CB94FF6FF74A342F6D1546804F0F9
:1009100001040CB900206CE08C79012C04D114681E
:1009200044F08004146003E0146824F08004146030
:10093000CC79012C04D1146844F04004146003E025
:10094000146824F0400414600C7A012C04D114685B
:1009500044F02004146003E0146824F020041460C0
:100960004C7A012C04D1146844F01004146003E0A4
:10097000146824F0100414608C7A012C04D11468DB
:1009800044F00804146003E0146824F008041460C0
:10099000CC7A012C04D1146844F00404146003E000
:1009A000146824F0040414608C78A407CD7844EA19
:1009B00005640D7944EA05444D7944EA05540D88EF
:1009C0006D1E2C43D461146824F0010414600023CC
:1009D00000E05B1C546804F001041CB14FF6FF7486
:1009E000A342F6D1546804F001040CB1002000E0E9
:1009F000012030BD0EB50121480600F09BFB1448D4
:100A0000FFF728FF684600F03DF800208DF806004B
:100A100001208DF807008DF8080000208DF80900EE
:100A20008DF80A008DF80B0001208DF802008DF87A
:100A3000030007208DF8040006208DF8050009202A
:100A4000ADF8000069460248FFF74AFF0EBD0000FE
:100A50000064004000210A4A42600422027200221F
:100A600042720822827200BF06E04A1DD3B200F132
:100A70000B0253544A1CD1B20829F6DB7047000020
:100A80000715FF1800218171C171017241728172D5
:100A9000C1728170C1700321017102214171012174
:100AA0000180704710B502460020936803F0806310
:100AB000B3F1806F00D110E0936803F00063B3F1ED
:100AC000006F01D1012008E0936803F08053B3F177
:100AD000805F01D1022000E00420042874D002F5D8
:100AE000C07303EB00131B6803F0010402F5C0732D
:100AF00003EB00131C600B7A7BB94B7A0C8843EA3A
:100B0000445302F5C07404EB00142468234302F537
:100B1000C07404EB0014236010E00B7A4C6843EAC5
:100B2000C4034C7A234302F5C07404EB0014246818
:100B3000234302F5C07404EB001423608B7A03F0A6
:100B40000F038B7202F5C07303EB00135B6823F095
:100B50000F0402F5C07303EB00135C6002F5C07371
:100B600003EB00135B688C7A234302F5C07404EB3B
:100B7000001463608B7B1C064B7B44EA03440B7BB5
:100B800044EA0323CC7A234302F5C07404EB001437
:100B9000A3608B7C1C064B7C44EA03440B7C44EA38
:100BA0000323CC7B234302F5C07404EB0014E36001
:100BB00002F5C07303EB00131B6843F0010402F558
:100BC000C07303EB00131C6010BD21B1026842F03A
:100BD0000102026004E002684FF6FE731A400260F0
:100BE0007047000001684FF6FE721140016000215D
:100BF000016041608160C1604B49884208D14A4927
:100C00000839496841F00F01474A083A51608AE0C3
:100C100045491431884208D143490839496841F0AF
:100C2000F001414A083A51607DE03F49283188424D
:100C300008D13D490839496841F470613A4A083A97
:100C4000516070E038493C31884208D13649083952
:100C5000496841F47041344A083A516063E03249CE
:100C60005031884208D130490839496841F470212F
:100C70002D4A083A516056E02B496431884208D128
:100C800029490839496841F47001274A083A5160F6
:100C900049E025497831884208D123490839496813
:100CA00041F07061204A083A51603CE01F49884297
:100CB00006D1011F096841F00F01021F116032E0E7
:100CC0001A491431884208D11849091F096841F0AE
:100CD000F001164A121F116025E01449283188429C
:100CE00008D11249091F096841F470610F4A121FA7
:100CF000116018E00D493C31884208D10B49091FA9
:100D0000096841F47041094A121F11600BE007495C
:100D10005031884207D10549091F096841F4702103
:100D2000024A121F11607047080002400804024086
:100D300010B50022026847F6F0739A430C6A8B687C
:100D400023430C6923434C6923438C692343CC69B7
:100D500023434C6A23438C6A23431A430260CB68C3
:100D600043600B6883604B68C36010BD7047000030
:100D700000B585B00121042000F0FCF901218803B1
:100D800000F0F8F94FF40070ADF8100018208DF85D
:100D9000130003208DF8120004A9174800F07EF814
:100DA0004FF48060ADF8100004208DF8130004A902
:100DB000114800F073F84FF4E13000900020ADF8D6
:100DC0000400ADF80600ADF80800ADF80C000C20EA
:100DD000ADF80A006946094800F0CAFC00F037F98E
:100DE000012240F22551054800F09DFC01210348F5
:100DF00000F056FC05B000BD00080140003801407D
:100E000008B50121042000F0B5F94020ADF800003C
:100E100018208DF8030003208DF80200694602486F
:100E200000F03CF808BD00000008014010B5FFF7D5
:100E3000E7FF00F001F810BD3EB50121022000F0EF
:100E400079F944F61F60ADF804004720ADF80000C2
:100E50000020ADF80600ADF802008DF808006946E4
:100E60000C4800F08FFB4FF4FA7460200A490880A8
:100E700001204880002008810846C480054800F011
:100E80002BFB0821034800F073FB0121014800F00F
:100E9000FDFA3EBD000400402C0000202DE9F04189
:100EA000024600250026002000230024002791F898
:100EB00003C00CF00F0591F803C00CF0100CBCF14E
:100EC000000F03D091F802C04CEA050591F800C06C
:100ED000BCF1000F31D0146800202BE04FF0010C62
:100EE0000CFA00F3B1F800C00CEA03069E4220D1D0
:100EF00083004FF00F0C0CFA03F7BC4305FA03FC18
:100F00004CEA040491F803C0BCF1280F06D14FF05D
:100F1000010C0CFA00FCC2F814C00AE091F803C0FE
:100F2000BCF1480F05D14FF0010C0CFA00FCC2F8DF
:100F300010C0401C0828D1D31460B1F800C0BCF127
:100F4000FF0F34DD546800202EE000F1080C4FF054
:100F5000010808FA0CF3B1F800C00CEA03069E423F
:100F600021D183004FF00F0C0CFA03F7BC4305FAB4
:100F700003FC4CEA040491F803C0BCF1280F05D12E
:100F800000F1080C08FA0CF8C2F8148091F803C0BC
:100F9000BCF1480F07D100F1080C4FF0010808FA26
:100FA0000CF8C2F81080401C0828CED35460BDE86D
:100FB000F0810000F0B50A4600230024002100253E
:100FC00000F00046B6F1004F02D11D4EF16901E07C
:100FD0001B4E7168C0F3034583B200F44016B6F5AA
:100FE000401F08D121F07061154E766826F07066BA
:100FF000134F7E6012E000F48016B6F5801F06D114
:10100000032606FA05F4A14341F0706106E0460D9F
:10101000360103FA06F6B14341F0706122B1460D84
:10102000360103FA06F6314300F00046B6F1004FF0
:1010300002D1034EF16101E0014E7160F0BD00008C
:101040000000014000BFFEE700BFFEE7704708B5A3
:101050004FF4A06000F046F825208DF80000012034
:101060008DF801008DF802008DF80300684600F04D
:1010700001F808BD70B5002100230F22C47804B325
:10108000154C246804F4E064C4F5E064210AC1F15D
:101090000403CA40447804FA03F1847814402143DD
:1010A00009010E4C0678A155047804F01F050124AF
:1010B000AC4005786D11AD0005F1E025C5F80041A3
:1010C00009E0047804F01F050124AC40044D0678C3
:1010D000761145F8264070BD0CED00E000E400E01C
:1010E00080E100E002490143024A116070470000BC
:1010F0000000FA050CED00E07047000001460020FA
:10110000034A506820F44040084350607047000094
:101110000010024029B1064A52690243044B5A6149
:1011200004E0034A52698243014B5A617047000050
:101130000010024029B1064AD2690243044BDA6129
:1011400004E0034AD2698243014BDA617047000030
:101150000010024029B1064A12690243044B1A6189
:1011600004E0034A12698243014B1A617047000090
:101170000010024029B1064A92690243044B9A6169
:1011800004E0034A92698243014B9A617047000070
:101190000010024030B500210022002400232D4D14
:1011A0006D6805F00C0121B1042905D0082923D16F
:1011B00005E0294D056022E0274D05601FE0254D23
:1011C0006D6805F47012234D6D6805F480340225B6
:1011D00005EB92421CB9214D554305600BE01D4DB6
:1011E0006D6805F400351DB11C4D5543056002E0E6
:1011F000194D5543056002E0174D056000BF00BF63
:10120000144D6D6805F0F0010909154D6B5C05681A
:10121000DD4045600F4D6D6805F4E061090A104D31
:101220006B5C4568DD4085600A4D6D6805F4605172
:10123000C90A0B4D6B5C4568DD40C560054D6D68A6
:1012400005F44041890B074D6B5CC568B5FBF3F5B0
:10125000056130BD0010024000127A0000093D0017
:1012600000000020100000207047000010B51F484B
:1012700000680F2839D100201C4908601C4800680C
:10128000D0B91C48C0880A301A49C88000211A48C1
:1012900000F0FCF81749184800F01EF90121164823
:1012A00000F0F4F81348C08840F6C41188421CD1FD
:1012B00001200F49086018E00E48C0880A380D491F
:1012C000C88000210C4800F0E1F80A490A4800F003
:1012D00003F90121084800F0D9F80648C088B0F5A4
:1012E000FA7F02D100200249086010BD14000020DE
:1012F0001C0000202C0000200004004010B500F06D
:1013000001F810BD0CB50020019000903348006832
:1013100040F480303149086000BF3048006800F474
:10132000003000900198401C0190009818B9019875
:10133000B0F5A06FF1D12948006800F4003010B179
:101340000120009001E0002000900098012843D186
:101350002348006840F010002149086008460068F2
:1013600020F0030008600846006840F002000860B2
:101370001A4840681949486008464068486008466D
:10138000406840F4806048600846406820F47C1063
:1013900048600846406840F4E81048600846006825
:1013A00040F08070086000BF0C48006800F00070DA
:1013B0000028F9D00948406820F003000749486038
:1013C0000846406840F00200486000BF034840689B
:1013D00000F00C000828F9D10CBD000000100240FC
:1013E000002002407047000010B51348006840F02C
:1013F00001001149086008464068104908400E493C
:101400004860084600680E4908400B4908600846D5
:10141000006820F4802008600846406820F4FE0040
:1014200048604FF41F008860FFF768FF4FF00060CE
:101430000449086010BD0000001002400000FFF8E1
:10144000FFFFF6FE08ED00E010B50121094800F0AD
:1014500029F868B108480068401C07490860074837
:101460000068401C054908600121024800F00BF8A3
:1014700010BD0000001000401400002018000020E3
:10148000CA4302827047CA430282704721B1028870
:1014900042F00102028004E002884FF6FE731A4017
:1014A0000280704730B50246002000230024158AD0
:1014B00005EA0103958905EA010413B10CB1012085
:1014C00000E0002030BD1AB183890B43838102E024
:1014D00083898B438381704770B5002400220023E9
:1014E000058C4FF6FE7635400584028C8388048B8C
:1014F0004FF68F752C40B51E2C400D882C43751E61
:101500002A400D892A434D882A43144DA8420BD006
:10151000134DA84208D0134DA84205D0124DA84241
:1015200002D0124DA84213D14FF6F7752A404D89CB
:101530002A434FF6FB752A408D882A434FF6FF65F4
:101540002B404FF6FF552B408D892B43CD892B43E4
:1015500083800483CD888586028470BD002C014081
:101560000034014000400140004401400048014077
:101570000A460021018B4FF6F7731940114301838E
:1015800070470000002202881D4B98420ED01D4B70
:1015900098420BD0B0F1804F08D01B4B984205D039
:1015A0001A4B984202D01A4B984204D14FF68F73CF
:1015B0001A404B881A43174B984207D0164B984253
:1015C00004D04FF6FF431A40CB881A4302808B8821
:1015D00083850B8803850A4B98420BD0094B9842B0
:1015E00008D00E4B984205D00D4B984202D00D4BBF
:1015F000984201D10B7A0386012383827047000051
:10160000002C01400034014000040040000800406C
:10161000000C004000100040001400400040014059
:10162000004401400048014010B540F225511948DE
:1016300000F04FF838B3174800F006F91649174A7A
:10164000128821F812001548008803281CD108468A
:101650001249098830F81100FF2815D10F48008879
:10166000801E0D4A32F810100A4800F0F2F80B48BC
:101670000088401E084A32F81010064800F0E9F8C9
:1016800000200649088004E004480088401C034903
:10169000088010BD003801405000002024000020C8
:1016A00021B1828942F40052828104E082894DF6A0
:1016B000FF731A408281704702460020B1F5007F17
:1016C00000D100BF13880B400BB1012000E00020C7
:1016D000704770B50246002400230025002040F624
:1016E0006A16B14200D100BFC1F3421501F01F03D9
:1016F000012606FA03F3012D02D19689334006E054
:10170000022D02D1168A334001E0968A33400C1232
:10171000012606FA04F41688344013B10CB10120F6
:1017200000E0002070BDF0B503460024002600252F
:10173000002040F66A17B94200D100BF1846C1F335
:10174000421401F01F06012707FA06F5012C01D10A
:101750000C3004E0022C01D1103000E014301AB13A
:1017600007682F43076002E00768AF430760F0BDDA
:101770002DE9F04786B005460E460024A24600BF7C
:10178000A1460027B08900B100BF2F462C8A4CF635
:10179000FF700440F08804432C82AC894EF6F310AD
:1017A0000440B08831890843718908430443AC81FF
:1017B000AC8A4FF6FF400440B0890443AC8201A8D4
:1017C000FFF7E8FC1F48874202D1DDF810A001E0D6
:1017D000DDF80CA0A88900F4004040B10AEBCA0073
:1017E00000EB0A1031684900B0FBF1F807E00AEBA2
:1017F000CA0000EB0A1031688900B0FBF1F86420E0
:10180000B8FBF0F004012009642101FB1089A889CC
:1018100000F4004040B1322000EBC900B0FBF1F011
:1018200000F00700044308E0322000EB09106421B7
:10183000B0FBF1F000F00F0004432C8106B0BDE8CE
:10184000F08700000038014001468888C0F3080096
:101850007047C1F308028280704700BFFEE70000B6
:101860000FB4054B10B503A9044A029800F018F80C
:1018700010BC5DF814FB0000051D000828000020C6
:1018800002E008C8121F08C1002AFAD17047704749
:10189000002001E001C1121F002AFBD170470000A7
:1018A0002DE9FF4F8DB00F460546002606E025289E
:1018B0000BD0DDE90F1290476D1C761C28780028AC
:1018C000F5D111B03046BDE8F08F0024A246A14604
:1018D0000122EC4900E0044315F8013F203B02FAE5
:1018E00003F00842F7D128782A2810D06FF02F0291
:1018F0002878A0F13001092914D80AEB8A0102EBFB
:10190000410144F0020400EB010A6D1CF0E701CF35
:101910005FEA000A03D544F40054CAF1000A44F017
:1019200002046D1C28782E2817D115F8010F44F0F9
:1019300004042A280ED06FF02F022878A0F130017D
:1019400009290AD809EB890102EB410100EB0109E1
:101950006D1CF2E757F8049B6D1C28786C280FD09B
:1019600006DC4C2817D068280DD06A2814D104E072
:10197000742810D07A280FD10DE044F400140AE046
:1019800044F4801401E044F440146978814202D1A7
:1019900004F580146D1C6D1C2A786E2A1FD00CDC97
:1019A000632A31D004DC002A8BD0582A11D1A3E05D
:1019B000642A68D0692A0CD165E0732A2ED004DC31
:1019C0006F2A73D0702A04D19BE0752A6FD0782AD1
:1019D0006ED01046DDE90F129047761C50E1C4F33B
:1019E0000250022806D0032809D0042801CF09D0CC
:1019F000066045E101CFF117C0E9006140E101CF88
:101A000006803DE106703BE117F8040B8DF80000FD
:101A100000208DF80100EB46012003E057F804BBDD
:101A20004FF0FF3061074FF0000102D40DE008F1E4
:101A30000101884649450FDA8045F8DB1BF808109C
:101A40000029F4D108E008F1010188468142FADB5F
:101A50001BF808100029F6D1DDE90F23AAEB0800D6
:101A60008146214600F036F9304400EB080604E0D8
:101A7000DDE90F121BF8010B9047B8F10108F7D20E
:101A800021464846F7E00A21C4F302534FF0000B09
:101A90000891022B04D001CFC117032B09D00AE013
:101AA000FF1D27F00707F7E8020108E032E01FE01A
:101AB00020E000B2C117042B01D140B2C117031EB0
:101AC00071F1000307DA4FF0000CD0EB0C006CEB67
:101AD00001012D2302E0230504D52B238DF82430AA
:101AE000012303E0E30701D02023F7E7984658E0FD
:101AF0000A2110E010210EE010204FF0000B08909A
:101B00000CE010214FF0000B44F004044FF00809E2
:101B1000089103E008214FF0000B0891C4F3025331
:101B2000022B04D001CF0021032B06D006E0FF1DBD
:101B300027F00707F7E8020103E080B2042B00D189
:101B4000C0B24FF0000823072BD5702A07D0DDF86C
:101B500020C08CF0100C5CEA0B0C05D00EE040238A
:101B60008DF82430012308E050EA010306D0302329
:101B70008DF824308DF8252002239846DDF820C00A
:101B80008CF0080C5CEA0B0C0BD150EA010301D17C
:101B9000630706D530238DF824304FF00108A9F1F2
:101BA0000109582A04D038A20B9208AA0A920BE025
:101BB0003AA2F9E75B46089AFEF7BAFB0B9B9B5CDF
:101BC0000A9A521E0A92137050EA0102F2D10A9840
:101BD000ADEB000000F1200B600702D524F4803447
:101BE00001E04FF00109D94502DDA9EB0B0000E04F
:101BF000002000EB0B0141440890AAEB010AE0032E
:101C000006D4DDE90F232146504600F063F8064470
:101C10004FF0000908E009A911F80900DDE90F12E9
:101C2000904709F10109761CC145F4DBE0030CD5AE
:101C3000DDE90F232146504600F04CF8064404E04D
:101C4000DDE90F1230209047761C0899481E089055
:101C50000029F5DC08E00A980A990078491C0A91E5
:101C6000DDE90F129047761CBBF10001ABF1010BCF
:101C7000F1DC21465046DDE90F2300F019F8064457
:101C80006D1C1BE6092801003031323334353637FC
:101C900038396162636465660000000030313233B8
:101CA0003435363738394142434445460000000058
:101CB0002DE9F041044600251E461746880404D449
:101CC00005E039462020B0476D1C641EF9D5284632
:101CD000BDE8F0812DE9F041044600251E469046FE
:101CE000C80301D5302700E02027880404D505E08B
:101CF00041463846B0476D1C641EF9D52846BDE8FC
:101D0000F081000070B504460D46E1B20548FFF7CA
:101D1000A0FD00BF80210348FFF7CEFC0028F9D0CA
:101D2000204670BD00380140FEF7D0FCFEF74CFDA8
:101D3000FFF77CF8FFF71CF8FEF785FD43E0FFF79F
:101D400095FA214800680F283DD100201E490860FF
:101D50001E48FEF77FFE1D491D48FEF7A3FE00BF8B
:101D60001A4D0B351BA0FFF77BFD00240EE0295D0B
:101D70001EA0FFF775FD601C0A2190FBF1F201FB2C
:101D8000120010B91BA0FFF76BFD641C082CEEDBE2
:101D900018A0FFF765FD00BF17480088FEF794FA0A
:101DA00081464FF08B41FEF7DFF90446FEF791FACA
:101DB00007464FF06632114BFEF714FA0546FEF760
:101DC0009BFA0F490860BAE7180000203C00002089
:101DD000006400403C3C2D43414E2D444542554754
:101DE0002D41525241592D3E3E0A00002530327895
:101DF000202020000A0000002600002066660A401D
:101E000020000020241E0008000000202C000000FC
:101E100080180008501E00082C000020240C000030
:101E200090180008000000000102030401020304EE
:101E30000607080902040608000000000000000070
:101E40000000000000000000000000000000000092
:0400000508000131BD
:00000001FF
