:020000040800F2
:10000000500C002045010008251300081D130008AE
:10001000211300081F0B0008FF1A00080000000051
:100020000000000000000000000000004115000872
:100030004510000800000000D1130008BD1600089C
:100040005F0100085F0100085F0100085F01000810
:100050005F0100085F0100085F0100085F01000800
:100060005F0100085F0100085F0100085F010008F0
:100070005F0100085F0100085F0100085F010008E0
:100080005F0100085F0100085F0100085F010008D0
:100090005F0100085F0100085F0100085F010008C0
:1000A0005F0100085F0100085F0100085F010008B0
:1000B0005F0100085F0100085F0100085F010008A0
:1000C0005F0100085F0100085F0100085F01000890
:1000D0005F010008011900085F0100085F010008C6
:1000E0005F0100085F0100085F0100085F01000870
:1000F0005F0100085F0100085F0100085F01000860
:100100005F0100085F0100085F0100085F0100084F
:100110005F0100085F010008211700085F01000867
:100120005F0100085F0100085F0100085F0100082F
:10013000DFF80CD000F01EFB004800471D2400082B
:10014000500C00200648804706480047FEE7FEE7BF
:10015000FEE7FEE7FEE7FEE7FEE7FEE7FEE7FEE777
:10016000C11600083101000830B480EA010202F033
:10017000004530F0004221F0004013D090B1C30D93
:10018000D40DC2F31601C0F31600E41A41F40001C5
:1001900040F400027D34914201D3641C00E0490028
:1001A000002C02DA30BC002070474FF4000000231E
:1001B000914201D3891A034340084FEA4101F7D124
:1001C00051B1914202D14FF0004105E002D24FF00F
:1001D000010101E06FF0010103EBC450284430BC81
:1001E00000F0EDB82DE9FE4F81EA030404F000446D
:1001F00021F0004100944FF0000B23F0004350EA3F
:1002000001045ED052EA03045BD0C3F30A54C1F385
:100210000A552C44A4F2F3340194A0FB0254C1F318
:10022000130141F48011C3F3130343F4801301FB62
:10023000024400FB034E840A970A44EA815447EAC9
:100240008357A4FB076802958D0A05FB07854FEAD3
:10025000932C04FB0C542705029D4FEA065847EAED
:100260001637B5EB08056EEB070C870E920E47EAC2
:10027000811742EA8312A7FB0201B6EB0B0164EB84
:1002800000042B0D43EA0C335E1844EB1C50DA4695
:100290005146E7FB0201C5F313044FEA0B3343EA6F
:1002A00014534FEA0432019C43EA0603A4F10C0400
:1002B0000294009CCDE900B400F0C7F803B0BDE89B
:1002C000F08F00200146F9E796230022114600F046
:1002D0007FB800F0004230F000400AD0C10D01F5B7
:1002E0006071C0F3160042EA0151C2084007114391
:1002F000704700200146704701F0004330B421F000
:10030000004150EA010206D00A0DA2F56072C1F365
:100310001301002A02DC30BC00207047440F44EA7D
:10032000C104C100E01830BC00EBC25000F047B877
:1003300030B50B46014600202022012409E021FAB5
:1003400002F59D4205D303FA02F5491B04FA02F5B2
:100350002844151EA2F10102F1DC30BD2DE9F05F49
:100360000546002092469B46884606468146402424
:100370001BE0284641464746224600F01CFA5346F9
:100380005A46C01A914110D311461846224600F031
:1003900003FA2D1A67EB01084F462246012000217F
:1003A00000F0FAF917EB00094E41201EA4F10104F8
:1003B000DFDC484631462A464346BDE8F09F002927
:1003C000A8BF7047401C490008BF20F001007047DB
:1003D00010B4B0FA80FC00FA0CF050EA010404BF3B
:1003E00010BC704749B1CCF1200421FA04F411FA91
:1003F0000CF118BF012121430843A3EB0C01CB1DD5
:100400004FEA00614FEA102042BF002010BC704745
:1004100000EBC35010440029A4BF10BC7047401C1F
:10042000490008BF20F0010010BC704710B5141E31
:1004300073F1000408DA401C41F1000192185B419D
:100440001A4301D120F0010010BD2DE9F04D924674
:100450009B4611B1B1FA81F202E0B0FA80F220328B
:10046000904600F099F904460F4640EA0A0041EA36
:100470000B0153465A46084313D0114653EA010074
:1004800019D0C8F14002504600F095F905460E46D5
:1004900050465946424600F07FF9084305D00120F6
:1004A00004E020463946BDE8F08D0020054346EAC9
:1004B000E0762C4337430A986305E40AA0EB080072
:1004C0000022FD0A44EA47540A3002D500200146C2
:1004D000E9E7010510196941DDE90845001969419D
:1004E000BDE8F04DA2E72DE9FE4F804681EA03000A
:1004F000C00F0C46009021F0004123F00045B8EBFE
:100500000200A94105D24046214690461C460B46B2
:10051000024623F00040104347D0270DC7F30A00DE
:10052000C3F30A510290401A019040286BDAC3F3DA
:10053000130040F4801B0098924620B10023D2EBB8
:10054000030A63EB0B0B01985946C0F14002504679
:1005500000F022F906460D4650465946019A00F031
:100560003AF910EB08006141002487EA115284EA4D
:10057000E7731A4340D0009A62B3019A012A4FEA06
:10058000075215DC001B61EB02014FF0004202EA4A
:100590000752CDE90042001C41F5801132462B463E
:1005A000FFF753FF03B0BDE8F08F40462146F9E75F
:1005B000001B61EB0201001C41F5801300185B4138
:1005C0002018A2F5001747EB030140EAD570B619D1
:1005D0006D4111E06D084FEA360645EAC0754FEAF5
:1005E0000752001B61EB0201001C41F58011490814
:1005F0004FEA30000019514132462B4603B0BDE8A6
:10060000F04FFFF713BF0098012240000023D0EB0A
:10061000020263EBE073009821464FEAE074B8EB06
:10062000000061EB0401E9E783F000435BE781F040
:10063000004158E72DE9F04D81EA030404F0004B36
:1006400021F0004514464FF0000A23F0004150EA23
:10065000050220D054EA01021DD0C5F30A57024614
:10066000C5F31303C1F31300C1F30A5640F4801518
:1006700043F48013A7EB0608101BD64608F2FD389A
:1006800073EB050002D308F1010801E092185B4109
:10069000B8F1000F03DA00200146BDE8F08D00201C
:1006A0004FF48011064684460EE0171B73EB0507D6
:1006B00005D3121B63EB050306434CEA010C490802
:1006C0004FEA300092185B4150EA0107EDD152EA3F
:1006D000030012D082EA040083EA0501084305D032
:1006E000101BAB4106D20122002306E000224FF08E
:1006F000004302E06FF0010253101AEB06004CEBCE
:10070000085110EB0A0041EB0B01BDE8F04DFFF77B
:100710008DBEC1F30A52C1F3130140F2FF3341F41D
:1007200080119A4202DA00200146704740F23343BA
:100730009A42A2F2334202DC524200F03CB800F08E
:100740002BB8000030B5041E71F1000404DB4FF03B
:100750000044404264EB0101141E73F1000405DB08
:100760001C464FF00043524263EB0403994208BF1A
:10077000904230BD064C074D06E0E06840F00103B2
:1007800094E8070098471034AC42F6D3FFF7D4FC46
:10079000F025000810260008202A04DB203A00FA81
:1007A00002F1002070479140C2F1200320FA03F3C8
:1007B000194390407047202A04DB203A21FA02F0C6
:1007C0000021704721FA02F3D040C2F1200291408B
:1007D000084319467047202A06DBCB17203A41FA16
:1007E00002F043EAE07306E041FA02F3D040C2F1BE
:1007F0002002914008431946704721B1826842F0B7
:100800000102826003E0826822F001028260704788
:1008100021B1826842F48072826003E0826822F42F
:10082000807282607047014600208A6802F00402EC
:100830000AB1012000E000207047014600208A68CC
:1008400002F008020AB1012000E000207047000019
:1008500030B502460020002350680F4C20400D792F
:100860000C6844EA05242043506090680B4C2040FB
:10087000D1E902542C434D7944EA45042043906069
:10088000D06A20F470000C7C641EE4B2234340EA7A
:100890000350D06230BD0000FFFEF0FFFDF7F1FF16
:1008A000F0B504460D4600200021092D11DDE06859
:1008B000A5F10A0606EB4607072606FA07F1884364
:1008C000A5F10A0606EB460603FA06F10843E060C6
:1008D0000CE0206905EB4507072606FA07F1884377
:1008E00005EB450603FA06F108432061072A0FDAF3
:1008F000606B561E06EB86071F2606FA07F1884333
:10090000561E06EB860605FA06F10843606322E0F0
:100910000D2A0FDA206BD61F06EB86071F2606FA74
:1009200007F18843D61F06EB860605FA06F1084351
:10093000206310E0E06AA2F10D0606EB86071F2691
:1009400006FA07F18843A2F10D0606EB860605FAC2
:1009500006F10843E062F0BD816841F00801816062
:10096000704721B1826842F4A002826003E082688D
:1009700022F4A00282607047816841F00401816026
:100980007047000008B50121102000F05FFD022033
:10099000ADF8000000208DF803006946014800F022
:1009A000E9FB08BD0010014010B5FFF7EBFF00F0B8
:1009B00001F810BD00B591B00121084600F016FD08
:1009C0000121480200F042FD334800F077FA334835
:1009D00006903348079000200890012009900020DD
:1009E0000A900B904FF480700C9080000D902020A6
:1009F0000E9000020F900020109006A9264800F0EB
:100A000003FB0121244800F04CFA002001908DF8EE
:100A1000080001208DF809004FF4602003900020A9
:100A2000049001208DF8140001A91C484C38FFF7F0
:100A30000FFF4FF4404000F0CDFC052301220B21B5
:100A400016484C38FFF72CFF012114484C38FFF7AB
:100A5000DFFE012111484C38FFF7CFFE0F484C381C
:100A6000FFF77AFF00BF0D484C38FFF7E6FE00287D
:100A7000F9D10A484C38FFF77FFF00BF07484C38D0
:100A8000FFF7D1FE0028F9D1012104484C38FFF7C7
:100A900068FF11B000BD0000080002404C24014076
:100AA0002600002010B500F025F800F001F810BD78
:100AB0000EB50121102000F0A9FC40F2E730ADF89E
:100AC000040041F6CF30ADF800006946084800F058
:100AD000C5FE0121064800F03FFE012211460448F0
:100AE00000F05DFE0121024800F03CFE0EBD00005A
:100AF0000010004008B54FF4E06000F05FFC3620C5
:100B00008DF8000000208DF8010003208DF8020010
:100B100001208DF80300684600F018FC08BD00BFF6
:100B2000FEE710B500F020F800F0D2F810BD00008C
:100B300010B504460B48844209D10121480600F053
:100B400075FC00214FF0007000F070FC08E00121FE
:100B5000880600F06BFC00214FF0806000F066FC1E
:100B600010BD00000064004008B50121092000F01C
:100B70006DFC01214FF4EA1000F088FB4FF4007087
:100B8000ADF8000018208DF8030003208DF8020056
:100B90006946094800F0EEFA4FF48070ADF80000A5
:100BA00048208DF8030003208DF8020069460248B2
:100BB00000F0E0FA08BD0000000C014030B502462C
:100BC00000200023146824F002041460146844F028
:100BD0000104146000E05B1C546804F001041CB9BB
:100BE0004FF6FF74A342F6D1546804F001040CB927
:100BF00000206CE08C79012C04D1146844F080044E
:100C0000146003E0146824F080041460CC79012C93
:100C100004D1146844F04004146003E0146824F024
:100C2000400414600C7A012C04D1146844F02004B0
:100C3000146003E0146824F0200414604C7A012C42
:100C400004D1146844F01004146003E0146824F024
:100C5000100414608C7A012C04D1146844F0080448
:100C6000146003E0146824F008041460CC7A012CAA
:100C700004D1146844F00404146003E0146824F000
:100C8000040414608C78A407CD7844EA05640D79D7
:100C900044EA05444D7944EA05540D886D1E2C4301
:100CA000D461146824F001041460002300E05B1C8C
:100CB000546804F001041CB14FF6FF74A342F6D14E
:100CC000546804F001040CB1002000E0012030BDA4
:100CD0000EB50121480600F099FB1448FFF728FFE4
:100CE000684600F03BF800208DF8060001208DF8E2
:100CF00007008DF8080000208DF809008DF80A0023
:100D00008DF80B0001208DF802008DF803000720FC
:100D10008DF8040006208DF805000920ADF80000CC
:100D200069460248FFF74AFF0EBD0000006400401C
:100D3000002141F214324260042202720022427207
:100D40000822827200BF06E04A1DD3B200F10B02F6
:100D500053544A1CD1B20829F6DB70470021817137
:100D6000C171017241728172C1728170C1700321BF
:100D700001710221417101210180704710B50246C5
:100D80000020936803F08063B3F1806F00D110E01E
:100D9000936803F00063B3F1006F01D1012008E014
:100DA000936803F08053B3F1805F01D1022000E02B
:100DB0000420042874D002F5C07303EB00131B68F1
:100DC00003F0010402F5C07303EB00131C600B7AFF
:100DD0007BB94B7A0C8843EA445302F5C07404EBA8
:100DE00000142468234302F5C07404EB001423604C
:100DF00010E00B7A4C6843EAC4034C7A234302F5B3
:100E0000C07404EB00142468234302F5C07404EB9F
:100E1000001423608B7A03F00F038B7202F5C0730A
:100E200003EB00135B6823F00F0402F5C07303EBC0
:100E300000135C6002F5C07303EB00135B688C7AEF
:100E4000234302F5C07404EB001463608B7B1C0623
:100E50004B7B44EA03440B7B44EA0323CC7A2343D1
:100E600002F5C07404EB0014A3608B7C1C064B7C61
:100E700044EA03440B7C44EA0323CC7B234302F57E
:100E8000C07404EB0014E36002F5C07303EB0013BD
:100E90001B6843F0010402F5C07303EB00131C60F0
:100EA00010BD21B1026842F00102026004E0026854
:100EB0004FF6FE731A4002607047000001684FF65B
:100EC000FE72114001600021016041608160C160DB
:100ED0004B49884208D14A490839496841F00F0115
:100EE000474A083A51608AE045491431884208D19E
:100EF00043490839496841F0F001414A083A5160D4
:100F00007DE03F492831884208D13D490839496888
:100F100041F470613A4A083A516070E038493C3116
:100F2000884208D136490839496841F47041344A49
:100F3000083A516063E032495031884208D1304963
:100F40000839496841F470212D4A083A516056E049
:100F50002B496431884208D129490839496841F44C
:100F60007001274A083A516049E0254978318842A2
:100F700008D123490839496841F07061204A083A8C
:100F800051603CE01F49884206D1011F096841F0C9
:100F90000F01021F116032E01A491431884208D152
:100FA0001849091F096841F0F001164A121F116023
:100FB00025E014492831884208D11249091F0968DF
:100FC00041F470610F4A121F116018E00D493C3165
:100FD000884208D10B49091F096841F47041094A48
:100FE000121F11600BE007495031884207D10549B3
:100FF000091F096841F47021024A121F11607047ED
:10100000080002400804024010B50022026847F6BA
:10101000F0739A430C6A8B6823430C6923434C6931
:1010200023438C692343CC6923434C6A23438C6A52
:1010300023431A430260CB6843600B6883604B68AC
:10104000C36010BD7047000000B585B001210420C9
:1010500000F0FCF90121880300F0F8F94FF400706A
:10106000ADF8100018208DF8130003208DF8120041
:1010700004A9174800F07EF84FF48060ADF8100026
:1010800004208DF8130004A9114800F073F84FF400
:10109000E13000900020ADF80400ADF80600ADF896
:1010A0000800ADF80C000C20ADF80A0069460948AC
:1010B00000F0B0FC00F037F9012240F2255105485C
:1010C00000F083FC0121034800F03CFC05B000BDAA
:1010D000000801400038014008B50121042000F05B
:1010E000B5F94020ADF8000018208DF8030003206A
:1010F0008DF802006946024800F03CF808BD000087
:101100000008014010B5FFF7E7FF00F001F810BD3F
:101110003EB50121022000F079F944F61F60ADF8D8
:1011200004004720ADF800000020ADF80600ADF83F
:1011300002008DF8080069460C4800F08FFB4FF460
:10114000FA7460200A490880012048800020088144
:101150000846C480054800F02BFB0821034800F036
:1011600073FB0121014800F0FDFA3EBD0004004080
:101170002C0000202DE9F041024600250026002029
:1011800000230024002791F803C00CF00F0591F80C
:1011900003C00CF0100CBCF1000F03D091F802C09A
:1011A0004CEA050591F800C0BCF1000F31D014687D
:1011B00000202BE04FF0010C0CFA00F3B1F800C056
:1011C0000CEA03069E4220D183004FF00F0C0CFA6C
:1011D00003F7BC4305FA03FC4CEA040491F803C08E
:1011E000BCF1280F06D14FF0010C0CFA00FCC2F83C
:1011F00014C00AE091F803C0BCF1480F05D14FF0CC
:10120000010C0CFA00FCC2F810C0401C0828D1D315
:101210001460B1F800C0BCF1FF0F34DD5468002049
:101220002EE000F1080C4FF0010808FA0CF3B1F8B9
:1012300000C00CEA03069E4221D183004FF00F0C40
:101240000CFA03F7BC4305FA03FC4CEA040491F8DA
:1012500003C0BCF1280F05D100F1080C08FA0CF806
:10126000C2F8148091F803C0BCF1480F07D100F117
:10127000080C4FF0010808FA0CF8C2F81080401C66
:101280000828CED35460BDE8F0810000F0B50A46CE
:10129000002300240021002500F00046B6F1004F95
:1012A00002D11D4EF16901E01B4E7168C0F3034588
:1012B00083B200F44016B6F5401F08D121F07061EA
:1012C000154E766826F07066134F7E6012E000F4CB
:1012D0008016B6F5801F06D1032606FA05F4A14351
:1012E00041F0706106E0460D360103FA06F6B1439F
:1012F00041F0706122B1460D360103FA06F6314322
:1013000000F00046B6F1004F02D1034EF16101E05A
:10131000014E7160F0BD00000000014000BFFEE71B
:1013200000BFFEE7704708B54FF4A06000F046F834
:1013300025208DF8000001208DF801008DF80200B5
:101340008DF80300684600F001F808BD70B5002173
:1013500000230F22C47804B3154C246804F4E0641D
:10136000C4F5E064210AC1F10403CA40447804FAD8
:1013700003F184781440214309010E4C0678A155ED
:10138000047804F01F050124AC4005786D11AD0010
:1013900005F1E025C5F8004109E0047804F01F05D7
:1013A0000124AC40044D0678761145F8264070BD06
:1013B0000CED00E000E400E080E100E002490143C0
:1013C000024A1160704700000000FA050CED00E0D1
:1013D0007047000001460020034A506820F4404056
:1013E00008435060704700000010024029B1064ACF
:1013F00052690243044B5A6104E0034A5269824332
:10140000014B5A61704700000010024029B1064AA2
:10141000D2690243044BDA6104E0034AD269824391
:10142000014BDA61704700000010024029B1064A02
:1014300012690243044B1A6104E0034A12698243B1
:10144000014B1A61704700000010024029B1064AA2
:1014500092690243044B9A6104E0034A9269824311
:10146000014B9A61704700000010024030B5002126
:101470000022002400232D4D6D6805F00C0121B1E0
:10148000042905D0082923D105E0294D056022E073
:10149000274D05601FE0254D6D6805F47012234D42
:1014A0006D6805F48034022505EB92421CB9214D8C
:1014B000554305600BE01D4D6D6805F400351DB109
:1014C0001C4D5543056002E0194D5543056002E08F
:1014D000174D056000BF00BF144D6D6805F0F001A9
:1014E0000909154D6B5C0568DD4045600F4D6D6861
:1014F00005F4E061090A104D6B5C4568DD408560CC
:101500000A4D6D6805F46051C90A0B4D6B5C456866
:10151000DD40C560054D6D6805F44041890B074D00
:101520006B5CC568B5FBF3F5056130BD001002408A
:1015300000127A0000093D00000000201000002089
:101540007047000010B51F4800680F2839D10020EF
:101550001C4908601C480068D0B91C48C0880A3083
:101560001A49C88000211A4800F0FCF817491848A9
:1015700000F01EF90121164800F0F4F81348C08865
:1015800040F6C41188421CD101200F49086018E0C0
:101590000E48C0880A380D49C88000210C4800F068
:1015A000E1F80A490A4800F003F90121084800F06F
:1015B000D9F80648C088B0F5FA7F02D10020024968
:1015C000086010BD140000201C0000202C0000202A
:1015D0000004004010B500F001F810BD0CB500206B
:1015E000019000903348006840F480303149086031
:1015F00000BF3048006800F4003000900198401CA3
:101600000190009818B90198B0F5A06FF1D1294860
:10161000006800F4003010B10120009001E00020CB
:1016200000900098012843D12348006840F0100042
:10163000214908600846006820F003000860084659
:10164000006840F0020008601A4840681949486084
:101650000846406848600846406840F4806048603A
:101660000846406820F47C1048600846406840F412
:10167000E81048600846006840F08070086000BFCD
:101680000C48006800F000700028F9D00948406854
:1016900020F00300074948600846406840F0020017
:1016A000486000BF0348406800F00C000828F9D1EA
:1016B0000CBD0000001002400020024070470000F6
:1016C00010B51348006840F0010011490860084651
:1016D0004068104908400E494860084600680E49B5
:1016E00008400B4908600846006820F48020086024
:1016F0000846406820F4FE0048604FF41F008860F0
:10170000FFF768FF4FF000600449086010BD00005B
:10171000001002400000FFF8FFFFF6FE08ED00E0B9
:1017200010B50121094800F029F868B1084800689F
:10173000401C0749086007480068401C05490860CC
:101740000121024800F00BF810BD0000001000401D
:101750001400002018000020CA4302827047CA43C8
:101760000282704721B1028842F00102028004E047
:1017700002884FF6FE731A400280704730B5024669
:10178000002000230024158A05EA0103958905EA53
:10179000010413B10CB1012000E0002030BD1AB1EA
:1017A00083890B43838102E083898B438381704764
:1017B00070B5002400220023058C4FF6FE763540DC
:1017C0000584028C8388048B4FF68F752C40B51EE0
:1017D0002C400D882C43751E2A400D892A434D88C4
:1017E0002A43144DA8420BD0134DA84208D0134DE4
:1017F000A84205D0124DA84202D0124DA84213D1E2
:101800004FF6F7752A404D892A434FF6FB752A405B
:101810008D882A434FF6FF652B404FF6FF552B402E
:101820008D892B43CD892B4383800483CD88858686
:10183000028470BD002C0140003401400040014092
:1018400000440140004801400A460021018B4FF648
:10185000F77319401143018370470000002202888A
:101860001D4B98420ED01D4B98420BD0B0F1804FCB
:1018700008D01B4B984205D01A4B984202D01A4B05
:10188000984204D14FF68F731A404B881A43174B76
:10189000984207D0164B984204D04FF6FF431A40A7
:1018A000CB881A4302808B8883850B8803850A4B7B
:1018B00098420BD0094B984208D00E4B984205D065
:1018C0000D4B984202D00D4B984201D10B7A038602
:1018D0000123838270470000002C01400034014046
:1018E0000004004000080040000C004000100040D0
:1018F0000014004000400140004401400048014005
:1019000010B540F225510C4800F035F898B10A485E
:1019100000F0ECF809490A4A128821F8120008463A
:101920000749098830F81100FF2804D004480088CE
:10193000401C0349088010BD0038014050000020C1
:101940002400002021B1828942F40052828104E007
:1019500082894DF6FF731A4082817047024600204B
:10196000B1F5007F00D100BF13880B400BB10120FF
:1019700000E00020704770B50246002400230025D7
:10198000002040F66A16B14200D100BFC1F34215F3
:1019900001F01F03012606FA03F3012D02D19689F7
:1019A000334006E0022D02D1168A334001E0968AC8
:1019B00033400C12012606FA04F41688344013B1A1
:1019C0000CB1012000E0002070BDF0B503460024FA
:1019D00000260025002040F66A17B94200D100BF5A
:1019E0001846C1F3421401F01F06012707FA06F555
:1019F000012C01D10C3004E0022C01D1103000E0A8
:101A000014301AB107682F43076002E00768AF433C
:101A10000760F0BD2DE9F04786B005460E4600246C
:101A2000A24600BFA1460027B08900B100BF2F46E3
:101A30002C8A4CF6FF700440F08804432C82AC8959
:101A40004EF6F3100440B088318908437189084389
:101A50000443AC81AC8A4FF6FF400440B089044394
:101A6000AC8201A8FFF702FD1F48874202D1DDF8D2
:101A700010A001E0DDF80CA0A88900F4004040B1FE
:101A80000AEBCA0000EB0A1031684900B0FBF1F81C
:101A900007E00AEBCA0000EB0A1031688900B0FBCE
:101AA000F1F86420B8FBF0F004012009642101FB87
:101AB0001089A88900F4004040B1322000EBC90031
:101AC000B0FBF1F000F00700044308E0322000EB27
:101AD00009106421B0FBF1F000F00F0004432C81E9
:101AE00006B0BDE8F0870000003801400146888854
:101AF000C0F308007047C1F308028280704700BF3E
:101B0000FEE700000FB4054B10B503A9044A029884
:101B100000F0DAF810BC5DF814FB0000F9230008AF
:101B20002800002002E008C8121F08C1002AFAD1CC
:101B300070477047002001E001C1121F002AFBD14D
:101B4000704700002DE9FF5F82B00021DDE904301D
:101B5000020DDDF840B0034318D044F61050A2F255
:101B6000FF3242431514119801281FD0A5EB0B003A
:101B7000401C5FEA000A4FF000064E4FDFF8389134
:101B8000B046504615D5CAF1000413E0119801245F
:101B90004AA3012801D16FEA0B010298119AC0E90A
:101BA0000031C0E9024206B0BDE8F09FCBF1000071
:101BB000DFE704460021404A491842EB0450CDE9D2
:101BC000001012E0E00707D032463B464046494647
:101BD000FEF708FB8046894632463B4610461946CA
:101BE000FEF700FB06460F466410002CEAD1DDE943
:101BF0000401DDE90023BAF1000F06DAFEF7F2FA7C
:101C000042464B46FEF7EEFA05E0FEF713FD42466C
:101C10004B46FEF70FFD04460E460022284BFEF70A
:101C200091FD03D84FF0FF30014607E00022254B1D
:101C300020463146FEF757FCFEF76BFD102409E005
:101C4000002C0ADB0A220023FEF788FB039B3032BC
:101C50001A55641E50EA0102F2D1641C039AC4F1C1
:101C600011031444119A012A03D0012208430DD113
:101C70000AE0084304D000204FF0110B119072E7E6
:101C8000A3EB0B056D1E0DE05B4504DD4FF000027C
:101C900005F1010504E003DA4FF00002A5F10105AA
:101CA000002AECD002981199C0E90231C0E9004540
:101CB00079E70000000014400000F03F3000000011
:101CC0000000F0430000E03F2DE9FF4F95B09B4638
:101CD0008946064600250FE2252877D100242746AD
:101CE000F84A0121059400E0044316F8013F203B27
:101CF00001FA03F01042F7D130782A2811D06FF0A2
:101D00002F033078A0F13002092A16D8059A44F042
:101D1000020402EB820203EB42021044761C05909F
:101D2000EFE759F8042B0592002A03DA504244F4F5
:101D30000054059044F00204761C30782E2816D109
:101D400016F8010F44F004042A280DD06FF02F027A
:101D50003078A0F13003092B09D807EB870302EB99
:101D60004303C718761CF3E759F8047B761C3078D8
:101D70006C280FD006DC4C2817D068280DD06A28B4
:101D800014D104E0742810D07A280FD10DE044F467
:101D900000140AE044F4801401E044F44014727822
:101DA000824202D104F58014761C761C30786628B5
:101DB0000BD013DC582877D009DC002875D04528D3
:101DC000F6D04628F4D047281AD19DE118E06328C0
:101DD00035D0642879D0652812D195E1702873D068
:101DE00008DC6728F1D069286FD06E280DD06F28E5
:101DF00006D1B5E073282CD0752875D0782874D01A
:101E00005A46179990476D1C75E1C4F30250022899
:101E100009D003280DD0D9F8001004280DD00D608A
:101E200009F1040967E1D9F80010EA17C1E9005285
:101E3000F6E7D9F800100D80F2E70D70F0E719F819
:101E4000041B8DF8001000208DF80100EA460120E7
:101E500003E059F804AB4FF0FF3061074FF0000189
:101E600002D40DE008F101018846B9420FDA80453D
:101E7000F8DB1AF808100029F4D108E008F1010194
:101E800088468142FADB1AF808100029F6D1059835
:101E90005B46A0EB080721463846179A00F094FAF3
:101EA000284400EB080507E04DE029E10DE01AF8B1
:101EB000010B5A4617999047B8F10108F7D25B46D3
:101EC00021463846179A13E142E00A220092C4F3F1
:101ED00002524FF0000A022A08D059F804CB032A14
:101EE0004FEAEC710AD00DE029E02AE009F1070180
:101EF00021F00702F2E802C1914609E00FFA8CFCDA
:101F00004FEAEC71042A03D14FFA8CFC4FEAEC71D2
:101F1000002907DA0A460021DCF1000C61EB02011E
:101F20002D2202E0220504D52B228DF80420012267
:101F300003E0E20701D02022F7E7904659E00A21AA
:101F400002E010220DE010214FF0000A00910BE09A
:101F500010224FF0000A44F004040827009203E026
:101F600008224FF0000A0092C4F30252022A05D060
:101F700059F804CB0021032A08D009E009F1070130
:101F800021F00702F2E802C1914605E01FFA8CFC3D
:101F9000042A01D10CF0FF0C4FF00008220728D5CD
:101FA000702806D0009B83F0100353EA0A0305D083
:101FB0000EE040228DF80420012208E05CEA0102D4
:101FC00006D030228DF804208DF8050002229046BC
:101FD000009B83F0080353EA0A030AD15CEA01027A
:101FE00001D1620705D530228DF804204FF0010899
:101FF0007F1E582804D034A003900EA802900DE054
:1020000036A0F9E753466046009AFEF7A7F98446E2
:102010000398825C0298401E029002705CEA010004
:10202000F0D1029806A9081A00F1200A600702D52B
:1020300024F4803400E00127574502DDA7EB0A00B5
:1020400000E0002000EB0A01009005984144401A8E
:102050000590E00306D45B462146179A059800F0E8
:10206000B3F90544002706E001A85A46C05D179958
:1020700090476D1C7F1C4745F6DBE0030CD55B46A3
:102080002146179A059800F09FF9054404E0302096
:102090005A46179990476D1C0099481E00900029D8
:1020A000F5DC08E0029802995A460078491C029132
:1020B000179990476D1CBAF10001AAF1010AF1DCF1
:1020C00065E10000092801003031323334353637FC
:1020D0003839616263646566000000003031323374
:1020E0003435363738394142434445460000000014
:1020F00000F058F90544761C307800287FF4ECADE8
:1021000019B02846BDE8F08F620700D4062709F110
:10211000070222F0070CFCE80223E14603F0004826
:102120005FEA080C02D00FF2702C0DE05FEA045C4D
:1021300002D50FF2682C07E05FEAC47C02D00FF2F0
:10214000602C01E0AFF2700C4FF0FF3823F0004339
:10215000CDF850C065280CD006DC452809D04628AB
:102160001DD047283DD13DE0662818D067287ED194
:1021700038E00021112F01DB112000E0781CCDE9AF
:10218000000106A90EA8FFF7DDFCDDE90F010E9A9C
:1021900003910021009207F1010A04914DE04FF0F4
:1021A00000400097CDE9011006A90EA8FFF7CAFC70
:1021B000DDE90F0203920E9B11990022DDF80CA0BD
:1021C0000093049211B9791C00EB010AB7EB0A00E5
:1021D00004D4C0F1FF3007F1010A0490AAEB070014
:1021E000019044E0012F00DA01270021112F01DDC9
:1021F000112000E03846CDE9000106A90EA8FFF73E
:10220000A1FCDDE90F010E9A0391002104910092D7
:10221000BA4621070CD40399514500DA8A46BAF12F
:10222000010F05DD009AAAF10101515C302908D0A7
:10223000B84202DA10F1040F06DA0121CDE90110EB
:1022400015E0AAF10101E9E7002805DC0499014441
:102250000491AAEB000102E0411C514500DD8A46D1
:102260000499401A401C01904FF000400290200752
:1022700004D40198504501DBCDF8048000208DF88E
:102280004F0002980DF14F07B0F1004F25D02B20E1
:102290000E9002984FF0020800280CDA404202909B
:1022A0002D200E9007E00A210298FEF741F8303108
:1022B000029007F8011DB8F10001A8F10108F2DC55
:1022C00002980028EFD1791E0E980870307800F03F
:1022D000200040F0450007F8020D12A8C01B00F1D5
:1022E00007081498007800B1012000EB0A0101985A
:1022F00001EBE07105984144401A401E0590E0034F
:1023000006D45B462146179A059800F05DF805440F
:102310001498007818B15A46179990476D1CE0033D
:1023200024D55B462146179A059800F04DF80544E0
:102330001CE00498002807DBDDE90301884203DD87
:102340000098405C179901E0179930205A46904751
:10235000049805F10105401C04900198401E01906D
:1023600004D12E205A46179990476D1CBAF10001EE
:10237000AAF1010ADDDC05E017F8010B5A461799AE
:1023800090476D1CB8F10001A8F10108F4DC5B4630
:102390002146179A0598ABE62D0000002B0000009F
:1023A000200000002DE9F041044600251E46174696
:1023B000880404D405E039462020B0476D1C641E13
:1023C000F9D52846BDE8F0812DE9F0410446002505
:1023D0001E469046C80301D5302700E02027880418
:1023E00004D505E041463846B0476D1C641EF9D55A
:1023F0002846BDE8F081000070B504460D46E1B204
:102400000548FFF778FB00BF80210348FFF7A6FAD5
:102410000028F9D0204670BD00380140FEF7C4FA0C
:10242000FEF740FBFEF76EFEFEF70EFEFEF779FBB1
:1024300031A0FFF767FB5DE0FFF784F838480068DC
:102440000F2857D10020364908603648FEF770FC47
:1024500034493548FEF792FC34A0FFF753FB3AA00D
:10246000FFF750FB2F4841683DA0FFF74BFB00BF33
:102470002C4D0B3541A0FFF745FB00240EE0295DF4
:1024800044A0FFF73FFB601C0A2190FBF1F201FB27
:10249000120010B921A0FFF735FB641C082CEEDBFD
:1024A0001EA0FFF72FFB00BF3C480088FDF70CFF84
:1024B00081464FF08B41FDF757FE0446FDF709FFBB
:1024C00007464FF06632364BFDF78CFE0546FDF7AA
:1024D00013FF344908603148018833A0FFF712FB2D
:1024E00030480068FDF7F5FE044622460B4637A04B
:1024F000FFF708FBA0E700000D0A2043414E20CA69
:10250000B9D3C3BBD8BBB7C4A3CABDA3ACB2BBBD10
:10251000D3CAD5CDE2B2BFCAFDBEDD0D0A000000B0
:10252000180000203C000020006400400D0AD2D1B9
:10253000CAB9D3C343414EB7A2CBCDCAFDBEDDB0AD
:10254000FCA3A10D0A0000000D0AB7A2CBCDB5C4B3
:10255000B1A8CEC4C4DAC8DDCEAAA3BA0D0A000061
:102560000D0A20C0A9D5B94944BAC5457874496453
:10257000A3BA30782578200D0A0000003C3C2D439A
:10258000414E2D44454255472D41525241592D3E11
:102590003E0A00002530327820202000260000204E
:1025A00066660A40200000200D0A205468652063FA
:1025B000757272656E742041442076616C75652079
:1025C0003D20307825303458200D0A000D0A205463
:1025D0006865203163757272656E7420414420769F
:1025E000616C7565203D2025662056200D0A00008F
:1025F00010260008000000202C000000241B00080A
:102600003C2600082C000020240C0000341B00088D
:102610000000000001020304010203040607080988
:102620000204060800000000000000000000000096
:0C2630000000000000000000000000009E
:0400000508000131BD
:00000001FF
